:020000040800F2
:1000000078110020A10100089B1200083D11000892
:10001000991200080B0300084B16000800000000AE
:100020000000000000000000000000009F12000817
:100030000D030008000000009D120008A112000836
:10004000BB010008BB010008BB010008BB010008A0
:10005000BB010008BB0100080F030008BB0100083A
:10006000BB010008BB010008BB010008BB01000880
:10007000BB010008BB010008BB010008BB01000870
:10008000BB010008BB010008BB010008BB01000860
:10009000BB010008BB010008BB010008BB01000850
:1000A000BB010008BB010008BB0100085513000894
:1000B000BB010008BB010008BB010008BB01000830
:1000C000BB010008BB010008BB010008BB01000820
:1000D000BB010008BB010008BB010008BB01000810
:1000E000BB010008BB010008BB010008BB01000800
:1000F000BB010008BB010008BB010008BB010008F0
:10010000BB010008BB010008BB010008BB010008DF
:10011000BB010008BB010008BB010008BB010008CF
:10012000BB010008BB010008BB010008BB010008BF
:10013000BB010008BB010008BB010008BB010008AF
:10014000BB010008BB010008BB010008BB0100089F
:10015000BB010008BB010008BB010008BB0100088F
:10016000BB010008BB010008BB010008BB0100087F
:10017000BB010008BB010008BB0100080000000033
:10018000BB010008BB010008DFF810D000F07CF8CC
:10019000004800478D160008AFF30080781100205A
:1001A0000648804706480047FEE7FEE7FEE7FEE711
:1001B000FEE7FEE7FEE7FEE7FEE7FEE7391300088D
:1001C000890100082DE9F05F0546002092469B4614
:1001D00088460646814640241BE02846414647465D
:1001E000224600F041F853465A46C01A914110D3B6
:1001F00011461846224600F028F82D1A67EB010830
:100200004F4622460120002100F01FF817EB00099D
:100210004E41201EA4F10104DFDC484631462A4647
:100220004346BDE8F09FD2B201E000F8012B491E21
:10023000FBD270470022F6E710B513460A46044683
:100240001946FFF7F0FF204610BD202A04DB203AB4
:1002500000FA02F1002070479140C2F1200320FA19
:1002600003F3194390407047202A04DB203A21FA17
:1002700002F00021704721FA02F3D040C2F12002BF
:100280009140084319467047064C074D06E0E06868
:1002900040F0010394E8070098471034AC42F6D3CD
:1002A000FFF776FFF81600081817000870B58D18CC
:1002B00010F8014B14F0030201D110F8012B2311A7
:1002C00006D110F8013B03E010F8016B01F8016B57
:1002D000521EF9D1ABB110F8012B04F00C048A1AAC
:1002E0000C2C03D0A2EB84129B1C08E010F8014BED
:1002F000A2EB0422F8E712F8014B01F8014B5B1E58
:10030000F9D5A942D4D3002070BDFEE77047012083
:1003100000F016B872B6FEE770B5044600F0FEF8BD
:100320000546601C02D004480078044400F0F6F84A
:10033000401BA042FAD370BD240D0020704700007E
:10034000044910B50A68024202D00860FFF7F6FFC0
:1003500010BD0000143C01402DE9F84F00224FF081
:10036000010803254FF00F0E0B6808FA02F4234032
:10037000A3426ED14E68012E05D0022E03D0112E5D
:1003800001D0122E12D186684FEA420C05FA0CF702
:10039000BE43CF6807FA0CF7374387604668A64329
:1003A0000C79C4F30014944034434460C668570089
:1003B00005FA07FC8C6826EA0C06BC403443C4608E
:1003C0004C68022C01D0122C13D1D40800EB840409
:1003D000A346D4F8209054074FEAD46A0EFA0AF6DE
:1003E00029EA06090E6906FA0AF646EA0906CBF872
:1003F000206006680C7926EA0C0604F00304BC4071
:10040000344304604C68E40065D5364C266846F4F5
:1004100080462660246822F0030604F48044009499
:10042000314C3444A446D4F808489607370F0EFAE6
:1004300007F6B4432D4EB04201D1002624E02C4EE5
:10044000B04201D101261FE02A4EB04202D102265D
:100450001AE040E0284EB04201D1032614E0274EB6
:10046000B04201D104260FE0254EB04201D105264D
:100470000AE0244EB04201D1062605E0224EB042E9
:1004800001D1072600E00826BE402643CCF80868C4
:100490001E4E34684F689C43FF0300D51C433460F4
:1004A0001A4C241D26684F689E43BF0300D51E4387
:1004B0002660164E083634684F689C43FF0200D50C
:1004C0001C433460114E0C3634684F689C43BF02A5
:1004D00000D51C433460521C102AFFF445AFBDE820
:1004E000F88F000044380240003001400000024014
:1004F0000004024000080240000C024000100240CC
:100500000014024000180240001C0240003C014060
:100510000AB1816170470904FBE700000148806867
:1005200070470000240D00200248816802781144C1
:1005300081607047240D00200B4810B5016841F41C
:1005400000710160016841F480610160016841F45B
:1005500080710160032000F06FF8002000F006F8C1
:1005600000F024F8002010BD003C024070B50D4D95
:1005700004464FF47A712878B1FBF0F00A49096813
:10058000B1FBF0F000F0E2FA48B9102C07D20022DB
:100590002146501E00F030F800206C6070BD012034
:1005A00070BD0000240D0020300D00200A4808B561
:1005B000016841F480410160006800F480400090CF
:1005C0000548001F016841F080510160006800F09B
:1005D0008050009008BD000044380240002809DB2C
:1005E00000F01F02012191404009800000F1E0204D
:1005F000C0F8001170470000F0B40E4B1B680C46A9
:10060000C3F30223C3F10705042D00D90425191DE6
:10061000072901D2002300E0DB1E012606FA05F1BE
:10062000491E214099409E40761E16403143F0BC41
:1006300001F00CB80CED00E0064900F00702086874
:100640004FF6FF03184040EA0220034A10430860B7
:10065000704700000CED00E00000FA052DE9F047BE
:100660000E46050065D0DFF81481D8F80000F7B217
:1006700000F00F00B04207D288F80070D8F80000F0
:1006800000F00F00B04254D128683D4C810712D5CC
:10069000400703D5206840F4E05020602878000728
:1006A00003D5206840F4604020602068A96820F0ED
:1006B000F000084320602878C0072DD030496868D2
:1006C0000839012812D0022813D0032811D0096854
:1006D000890700292DDA216821F0030101432160F7
:1006E000FFF71CFF814641F2883A0EE00968890352
:1006F000EFE709688901ECE7FFF710FFA0EB0901BC
:10070000514502D90320BDE8F0872068696800F0F0
:100710000C00B0EB810FEFD1D8F80010404601F08B
:100720000F01B14207D90770006800F00F00B04216
:1007300001D00120E7E72878400705D52068E9685F
:1007400020F4E050084320602878000706D5206890
:10075000296920F4604040EAC100206000F018F8E8
:100760002168084AC1F30311515CC840064908607A
:1007700006480068FFF7FAFE0020C4E7003C02408C
:1007800008380240E8160008300D0020280D00202F
:10079000154810B5006810F00C02144813D0411031
:1007A000042A0FD0082A0ED10F4C241F2268236878
:1007B00002F03F025B0207D52068C0F38810A0FB5F
:1007C000010106E0084610BD2168C1F38811A1FBB4
:1007D00000010023FFF7F6FC2168C1F30141491C29
:1007E0004900B0FBF1F010BD083802400024F400CD
:1007F0002DE9F84F04006ED02078DFF83C93C00755
:10080000A9F104054AD009F104000168C1F381018E
:10081000012908D00068C0F3810002280AD1D9F864
:100820000000400206D52868800337D5606800289C
:10083000E1D033E06068B0F5803F10D0B0F5A02F74
:10084000286810D020F480302860286820F48020A8
:1008500028606068A8B1FFF761FE06460DE02868D1
:1008600040F48030F4E740F480202860F7E700BFD0
:10087000FFF754FE801B642873D828688003F7D5DF
:100880000CE0FFF74BFE064605E000BFFFF746FE13
:10089000801B6428F0D828688003F7D42078DFF81C
:1008A0009C8280074FF0000A3ED5A348001D0168D6
:1008B00011F00C0F08D00068C0F3810002280BD1A2
:1008C000D9F80000400207D42868800716D5E068F0
:1008D000012800D112E02BE1E068B8B10120C8F88E
:1008E0000000FFF71BFE064605E000BFFFF716FEFF
:1008F000801B0228C0D828688007F7D5286821699E
:1009000020F0F80040EAC10028600DE0C8F800A01F
:10091000FFF704FE064604E0FFF700FE801B0228F6
:100920001FD828688007F7D42078000722D5824E88
:1009300083486169703671B101210160FFF7EEFDF6
:10094000074604E0FFF7EAFDC01B022809D830681B
:100950008007F7D50EE0C0F800A0FFF7DFFD0746DF
:1009600005E082E0FFF7DAFDC01B02287DD8306881
:100970008007F7D42078400768D5DFF8BCB100279E
:100980000BF13C0BDBF80000C0000BD4DBF80010CF
:1009900041F08051CBF80010DBF80000012700F097
:1009A00080500090674E3068C00510D4306840F425
:1009B00080703060FFF7B2FD009005E0FFF7AEFDFC
:1009C0000099401A022850D83068C005F6D55A4E12
:1009D000A0686C3601280FD00528306810D020F0B0
:1009E00001003060306820F004003060A068B8B1C9
:1009F000FFF794FD00900FE0306840F00100F4E74D
:100A000040F004003060F7E7FFF788FD0099411AD5
:100A100041F28830814266D830688007F4D50EE014
:100A2000FFF77CFD009007E0FFF778FD0099411A81
:100A300041F28830814256D830688007F4D42FB113
:100A4000DBF8001021F08051CBF80010A069C8B38A
:100A50003949091D0968C1F3810102294AD00228D8
:100A6000504607D0C8F8600000E03CE0FFF756FDB4
:100A700004463BE04746C8F86000FFF74FFD0646D6
:100A800005E000BFFFF74AFD801B02282BD828682D
:100A90008001F7D4D4E907010843A16A2A4A49082A
:100AA00002EB0141626A41EA8211084394F82C107A
:100AB00040EA0161C9F8001001203866FFF72EFDF9
:100AC000044606E036E000BFFFF728FD001B0228C1
:100AD00009D828688001F7D52CE000BFFFF71EFD7C
:100AE000001B022802D90320BDE8F88F2868800186
:100AF000F4D41FE00128F7D0D9F80000E26900F42F
:100B00008001914214D1226A00F03F0191420FD13D
:100B100047F6C071626A0140914209D1A26A00F4AD
:100B20004031914204D1E16A00F07060884201D006
:100B30000120D9E70020D7E70438024000004742EF
:100B4000800E4742007000400000FFFF10B5401EBD
:100B5000B0F1807F01D3012010BD4FF0E02460612F
:100B60000F21601700F072FD0020A06107202061B6
:100B7000002010BD7047704710B590F83C20012A46
:100B800022D0012280F83C20CA688C6822F440728E
:100B900022434C6822F4806222430C6822F40062F3
:100BA00022430C6922F4805222434C6922F4005201
:100BB0002243C969002322F480420A4301684A643F
:100BC00080F83C30002010BD022010BD70B590F8B8
:100BD0003C20012A32D0012480F83C40022280F8D7
:100BE0003D2003685A689D6822F070060A68324307
:100BF0005A60134B02689A4214D0B2F1804F11D060
:100C0000104B9A420ED0104B9A420BD00F4B9A4287
:100C100008D00F4B9A4205D00E4B9A4202D00E4B91
:100C20009A4204D1496825F080031943916080F805
:100C30003D40002180F83C10084670BD022070BD88
:100C4000000001400004004000080040000C00408B
:100C500000040140004001400018004010B5044667
:100C60000068042200F0EDFB2068416C41F4004173
:100C700041642068816801F00701062903D00168FA
:100C800041F001010160002010BD10B5040003D047
:100C900094F83D0010B107E0012010BD002084F859
:100CA0003C00204600F00CF8022084F83D00211D95
:100CB000206800F055FB012084F83D00002010BDA5
:100CC00008B500680B49884212D10B48016841F011
:100CD000010101600068002200F00100009011464F
:100CE0001B20FFF789FCBDE808401B20FFF776BCFE
:100CF00008BD0000000001404438024070B50446C1
:100D000090F83C00012817D0012584F83C500220BF
:100D100084F83D002068826822F0770222F47F4246
:100D200082600868502830D00DDC20284DD005DCCA
:100D300098B310283BD148E0022070BD302844D041
:100D4000402834D139E0602828D0702806D0B0F58A
:100D5000805F2CD0B0F5005F29D10AE0CB68D1E9E3
:100D60000121206800F07AFB2068816841F077015A
:100D700009E0CB68D1E90121206800F06FFB206811
:100D8000816841F48041816011E0CA684968206847
:100D900000F038FC5021206807E016E0CA68496876
:100DA000206800F040FC6021206800F061FB84F8BE
:100DB0003D50002084F83C0070BDCA684968206836
:100DC00000F020FC40212068EFE722680146104631
:100DD000EBE7704770B50446006801694FF0000505
:100DE000C943890715D4C168C943890711D4E91ECD
:100DF000016101202077206880698007204602D0A9
:100E0000FFF7E7FF04E000F0D7F8204600F070F9A4
:100E1000257720680169C943490717D4C168C943C8
:100E2000490713D46FF00401016102202077206884
:100E3000806910F4407F204602D0FFF7CAFF04E02B
:100E400000F0BAF8204600F053F9257720680169D0
:100E5000C943090716D4C168C943090712D46FF002
:100E600008010161042020772068C06980072046BE
:100E700002D0FFF7AEFF04E000F09EF8204600F03D
:100E800037F9257720680169C943C90617D4C168B5
:100E9000C943C90613D46FF01001016108202077FF
:100EA0002068C06910F4407F204602D0FFF791FF10
:100EB00004E000F081F8204600F01AF92577206858
:100EC0000169C943C90708D1C168C943C90704D129
:100ED000891E0161204600F02FF920680169C9438D
:100EE000090609D4C168C943090605D46FF0800119
:100EF00001612046FFF73EFE20680169C9434906AB
:100F000009D4C168C943490605D46FF040010161A5
:100F1000204600F012F920680169C94389060BD404
:100F2000C168C943890607D46FF0200101612046DA
:100F3000BDE87040FFF71FBE70BD000070B586B001
:100F4000044614216846FFF775F91749206888425E
:100F500027D116480024016841F0010101600168B1
:100F600001F001010591016841F010010160006884
:100F7000022500F01000059080200090CDE901547A
:100F80000126CDE9034669460948FFF7E5F928023D
:100F90000090CDE90154CDE9034669460548FFF7C5
:100FA000DBF906B070BD000000000140303802409F
:100FB0000000024000100240084988420DD1084A52
:100FC000084B111F086852F820205A63401C086023
:100FD000B0F5527F01DB002008607047340D00201F
:100FE000040000200000014070B5044690F83C0069
:100FF0000D4601280DD0012684F83C60022084F8BB
:101000003D0042B1042A18D0082A2AD00C2A4DD11A
:1010100039E0022070BD206800F032FA2068816952
:1010200041F0080181612068816921F0040181613A
:10103000206881692A69114311E0206800F050FAA4
:101040002068816941F4006181612068816921F42F
:1010500080618161206881692A6941EA0221816198
:1010600024E0206800F072FA2068C16941F00801AC
:10107000C1612068C16921F00401C1612068C169B2
:101080002A69114311E0206800F094FA2068C169D0
:1010900041F40061C1612068C16921F48061C161CE
:1010A0002068C1692A6941EA0221C16184F83D6072
:1010B000002084F83C0070BD10B5040003D094F803
:1010C0003D0010B107E0012010BD002084F83C0075
:1010D000204600F00CF8022084F83D00211D206815
:1010E00000F03EF9012084F83D00002010BD70475B
:1010F0007047000010B504460068012200F094F922
:101100000B492068884202D00A49884203D1416CC9
:1011100041F4004141642068816801F0070106291B
:1011200003D0016841F001010160002010BD000002
:10113000000001400004014070477047FEE70000D6
:1011400070B586B014216846FFF774F81D48002575
:10115000016841F080010160016801F080010591A2
:10116000016841F001010160016801F00101059190
:10117000016841F0100101600068134E00F010009A
:101180000590012202213046FFF7C2F90F480124E1
:10119000CDE90040694602953046FFF7DDF80220B0
:1011A000CDE9000469463046CDE90245FFF7D4F8A1
:1011B000002211460620FFF71FFA0620FFF70EFA5D
:1011C00006B070BD3038024000000240000031100F
:1011D00010B596B000240F941094119412941394A7
:1011E0001C2108A81494FFF725F820216846FFF772
:1011F00021F828482649C0E9001441F63F71C0E9AA
:101200000241046144618461FFF73FFD08B1FFF7CB
:1012100081F84FF480500F900FA91E48FFF76EFD24
:1012200008B1FFF777F81B48FFF746FF08B1FFF753
:1012300071F8139413A917481494FFF7C7FC08B169
:10124000FFF768F8602008907B20CDE909040B9433
:101250000C940D94002208A90E480E94FFF7C4FECA
:1012600008B1FFF757F800944FF40050CDE904405F
:10127000029401940394694606480794FFF77CFCA6
:1012800008B1FFF747F80348FFF758FE16B010BD46
:1012900000000140340D0020FEE7FEE77047704774
:1012A000FFF742B930B593B030216846FEF7C2FF70
:1012B00014210CA8FEF7BEFF1D480025016841F06F
:1012C00080510160006800F0805011901948016859
:1012D00041F4804101600068022400F480401190D4
:1012E00001200090000401908001CDE9064008AA89
:1012F0000420A82182E813000B906846FFF778FAD3
:1013000008B172B6FEE70CA90F2081E831004FF456
:10131000A0500F904FF48050109005210CA8FFF7BB
:101320009DF9002801D072B6FEE713B030BD000071
:1013300040380240007000400548016841F47001E7
:10134000016003494FF00060803908607047000079
:1013500088ED00E00148FFF73DBD0000340D00209E
:10136000F0B50268254C264D264E274F274B4FF0EF
:10137000804CA04209D0604507D0A84205D0B042B9
:1013800003D0B84201D0984204D122F0700E4A68CE
:1013900042EA0E02A0421BD0604519D0A84217D0E5
:1013A000B04215D0B84213D0984211D0184DA8427F
:1013B0000ED0184DA8420BD0174DA84208D0174D9B
:1013C000A84205D0164DA84202D0164DA84203D11E
:1013D00022F44075CA682A434D6922F080022A43EC
:1013E00002608A68C2620A688262A04201D09842A2
:1013F00001D10969016301214161F0BD0000014093
:101400000004004000080040000C004000040140BF
:1014100000400140004401400048014000180040E5
:10142000001C00400020004010B501F01F03012106
:10143000046A99408C430462016A9A401143016234
:1014400010BD10B501F01F030421046A99408C43BC
:101450000462016A9A401143016210BD10B58468AC
:1014600042EA032224F47F440A432243826010BDEF
:10147000826822F070020A4342F0070181607047DF
:10148000F0B5026A22F001020262036A42688469CE
:10149000124E24F073050C682C4323F002058B6870
:1014A0002B430D4DA84201D0B04205D123F00807CF
:1014B000CB683B4323F00403A84201D0B04205D1DE
:1014C0004D6922F4407215438A692A43426084615F
:1014D000496841630362F0BD00000140000401401F
:1014E000F0B5026A22F010020262026A436884695F
:1014F0000D6824F4E64444EA05248D6822F02002B5
:1015000042EA05120F4D104EA84201D0B04206D15A
:10151000CF6822F0800242EA071222F04002A8427D
:1015200001D0B04207D14D6923F4406343EA8503FB
:101530008D6943EA8503436084614968816302627F
:10154000F0BD00000000014000040140F0B5026A57
:1015500022F480720262026A4368C46922F4007253
:1015600024F073050C68124E2C438D6842EA052264
:101570000E4DA84201D0B04206D1CF6822F40062DD
:1015800042EA072222F48062A84201D0B04207D189
:101590004D6923F4405343EA05138D6943EA05136B
:1015A0004360C4614968C1630262F0BD000001404C
:1015B0000004014030B5026A22F480520262046ADB
:1015C0004268C3690D6823F4E64343EA05238D6846
:1015D00024F4005444EA0534084DA84202D0084DD2
:1015E000A84204D14D6922F4804242EA8512426049
:1015F000C36149680164046230BD0000000001401D
:101600000004014010B5036A046A24F00104046276
:10161000846924F0F00444EA021423F00A020A4325
:101620008461026210BD10B5036A23F010030362E7
:101630008369046A23F4704343EA023224F0A0036E
:1016400043EA01118261016210BDFEE70907090E3C
:10165000002804DB00F1E02080F80014704700F05F
:101660000F0000F1E02080F8141D704702E008C868
:10167000121F08C1002AFAD170477047002001E00C
:1016800001C1121F002AFBD170470000FEF754FF72
:10169000FFF708FEFFF754FDFFF79AFD104C0022FC
:1016A00002212046FEF734FF4FF4FA652846FEF784
:1016B00033FE012202212046FEF72AFF2846FEF7CC
:1016C0002BFE002202212046FEF722FF00210548C2
:1016D000FFF710FD00210348FFF7C0FAF6E700000E
:1016E00000000240340D0020000000000000000057
:1016F000010203040607080918170008000000206B
:10170000340D0000AC020008381F0008340D002022
:10171000440400007C1600081200011006AC0F0003
:1017200000C60412DF0412F80C1006121000002B81
:1017300004124504125E0412770412910412AA04E2
:1017400012C40412DD0412F62410060F1100002941
:1017500004124204125B04127404128E0412A704D1
:1017600012C00412D90412F22410060B1200002435
:1017700004123D04125604126F0412880412A004CD
:1017800012B90412D20412EA241006031300001C3A
:1017900004123404124D04126504127D04129604DE
:1017A00012AE0412C60412DE0412F62810060E143D
:1017B00000002604123E04125604126E0412850420
:1017C000129D0412B40412CC0412E30412FB281379
:1017D0001215A81104124004125704126E04128547
:1017E00004129C0412B20412C90412DF0412F62877
:1017F00010060C1600002204123804124E04126463
:1018000004127A0412900412A50412BB0412D0042C
:1018100012E60412FB2C1006101700002504123AE1
:1018200004124F04126304127804128C0412A104EF
:1018300012B50412C90412DD0412F12C10060518A9
:1018400000001804122C04123F0412530412660400
:10185000127904128C04129E0412B10412C40412F0
:10186000D60412E80412FA3410060C1900001E0403
:10187000123004124104125304126404127504124B
:10188000860412970412A80412B90412C90412D9CA
:101890000412E90412F9381006091A00001904129A
:1018A00029041238041247041256041265041274F3
:1018B00004128304129104129F0412AE0412BC0499
:1018C00012CA0412D70412E50412F20412FF4413E0
:1018D0000C1B481104122604123204123F04124B4E
:1018E00004125704126304126F04127A041286045D
:1018F000129104129C0412A70412B10412BC041227
:10190000C60412D00412DA0412E40412EE0412F730
:10191000541006011C00000A04121304121B0412C6
:101920002404122C04123504123D04124504124CF6
:1019300004125404125B041262041269041270044B
:10194000127604127D04128304128904128F041289
:101950009504129A04129F0412A40412A90412AE50
:101960000412B30412B70412BB0412BF0412C3045E
:1019700012C70412CA0412CD0412D00412D30412E6
:10198000D60412D80412DA0412DD0412DE0412E0C6
:101990000412E20412E30412E40412E50452E60421
:1019A000D2E704611852E52C52E33C52E04C52DD80
:1019B0005C52D86C52D37C52CD8C52C79C52BFAC77
:1019C00052B7BC52AECC52A4DC529AEC528FFC56A9
:1019D000830C56761C56692C565B3C564C4C563D37
:1019E0005C562C6C561B7C2584258C56F79C56E443
:1019F000AC56D0BC56BCCC56A7DC5691EC567AFC03
:101A00005A630C5A4B1C5A322C2934293C5AFF4C2D
:101A10005AE55C5ACA6C5AAE7C5A918C5A749C5ADC
:101A200056AC5A38BC29C429CC5AF9DC5AD9EC5ADC
:101A3000B9FC5E970C035E751C035E532C035E308D
:101A40003C032D44035EFA54035ED664035EB17416
:101A5000035E8C84035E6694035E3FA4032DAC0397
:101A60002DB4035EF1C4035EC9D4035EA1E4035E3A
:101A700078F4035E4F04042D0C042D14045EFB2443
:101A8000045ED034045EA544045E7A54045E4E6461
:101A9000042D6C042D74045EF684045EC994045E07
:101AA0009CA4045E6EB4045E40C4042DCC045EFBB2
:101AB000DC045ECCEC045E9DFC045E6E0C055E3EB8
:101AC0001C052D24055EF634055EC644055E96545D
:101AD000055E6564055E3474052D7C055EEA8C0543
:101AE0005EB99C055E88AC055E56BC052DC4052D0F
:101AF000CC055EF2DC055EC0EC055E8EFC055E5B2F
:101B00000C062D14062D1C065EF62C065EC43C0643
:101B10005E914C065E5E5C062D64062D6C065EF8DA
:101B20007C062D84062D8C06129304127904126013
:101B300004124704122D041E149C061006FA0E000F
:101B400000E10412C80412AE04129504127B0412C0
:101B500062041249041230041216241BFD0DBC113C
:101B60000412CB0412B104129804127F041266040A
:101B7000124D04123404121B0412022817E90CA49B
:101B8000110412B704129F04128604126D04125538
:101B900004123C04122304120B241FF20B0C031139
:101BA0000412C20412A904129104127904126104ED
:101BB0001249041231041219041201281006E90A0C
:101BC0000000D10412BA0412A204128B041273048E
:101BD000125C04124404122D041216241BFF098CFB
:101BE000110412D10412BA0412A304128D04127645
:101BF00004126004124904123304121D0412072C4B
:101C00001006F1080000DB0412C50412AF04129A9A
:101C100004128404126F04125904124404122F0493
:101C2000121A0412052C1006F0070000DC0412C77B
:101C30000412B304129E04128A041276041262047F
:101C4000124E04123A041227041213041200301721
:101C5000EC06DC110412C60412B30412A104128EA5
:101C600004127B041269041257041245041233044F
:101C7000122104120F3013FE0538110412DB041276
:101C8000CA0412B90412A804129704128604127628
:101C90000412660412560412460412360412260474
:101CA00012160412073C17F80434110412DA041255
:101CB000CB0412BC0412AE0412A0041291041283CD
:101CC00004127504126804125A04124D04124004DE
:101CD000123304122604121904120D0412004817BC
:101CE000F40354110412DC0412D00412C50412B916
:101CF0000412AE0412A304129804128E0412830478
:101D0000127904126F04126504125B04125104125A
:101D10004804123E04123504122C04122404121B2F
:101D200004121304120A041202601006FA020000E0
:101D3000F30412EB0412E40412DD0412D60412CFF1
:101D40000412C90412C20412BC0412B60412B00474
:101D500012AA0412A50412A004129B0412960412E3
:101D60009104128C04128804128404128004127CE0
:101D700004127804127504127204126F04126C04B7
:101D800012690412670412650412620412610412DB
:101D90005F04125D04125C04125B04125A0452596F
:101DA00004D258046118525A2C525C3C525F4C5277
:101DB000625C52676C526C7C52728C52789C52807E
:101DC000AC5288BC5291CC529BDC52A5EC52B0FC78
:101DD00056BC0C56C91C56D62C56E43C2544254C02
:101DE00056025C56136C56247C56358C56489C56CD
:101DF0005BAC566FBC5683CC5698DC56AEEC56C5E1
:101E0000FC5ADC0C29145A00245A19345A33445A07
:101E10004D545A68645A83745AA0845ABC945ADA4E
:101E2000A429AC5A07BC5A26CC5A46DC5A66EC5A4E
:101E300086FC5EA80C035ECA1C032D24032D2C0314
:101E40005E0F3C035E334C035E575C035E7B6C03AA
:101E50005EA17C035EC68C032D94035E00A4035E2A
:101E600027B4035E4EC4035E76D4035E9EE4035E35
:101E7000C7F4032DFC035E050C045E2F1C045E59A1
:101E80002C045E843C045EAF4C042D54042D5C0491
:101E90005E076C045E337C045E608C045E8D9C0483
:101EA0005EBAAC042DB4042DBC045E16CC045E44B2
:101EB000DC045E73EC045EA2FC042D04052D0C050D
:101EC0005E011C055E312C055E613C055E914C0592
:101ED0005EC25C052D64055E0B74055E3C84055E88
:101EE0006D94055E9FA4052DAC052DB4055E02C45E
:101EF000055E34D4055E66E4055E98F4055ECB04A9
:101F0000062D0C065E161C065E492C065E7B3C0602
:101F10005EAE4C062D54062D5C065E146C065E47C4
:101F20007C065E798C061E01240D1DEF0C4101001C
:081F3000040024F4000000008D
:040000050800018965
:00000001FF
